S01700004763634170706C69636174696F6E312E737265635B
S113000012C019C018C017C016C015C014C013C040
S113001012C011C010C00FC00EC00DC00CC00BC068
S11300200AC009C008C011241FBECFE5D4E0DEBF5A
S1130030CDBF02D027C0E4CF81B3806E81BBB89A14
S113004084B3807F84BB85B3807F85BB999B969A5C
S11300509A99979A959A2FE986E891E021508040E1
S11300609040E1F700C0000095982FE986E891E000
S1130070215080409040E1F700C0000082B38F73AC
S10B008082BBE4CFF894FFCF2A
S9030000FC
