S01700004763634170706C69636174696F6E312E737265635B
S113000012C019C018C017C016C015C014C013C040
S113001012C011C010C00FC00EC00DC00CC00BC068
S11300200AC009C008C011241FBECFE5D4E0DEBF5A
S1130030CDBF02D023C0E4CF81B3806E81BBB89A18
S113004084B3807F84BB85B3807F85BB989B969A5D
S1130050959A2FE986E891E0215080409040E1F79D
S113006000C0000095982FE986E891E02150804077
S11300709040E1F700C000009698E8CFF894FFCFD5
S9030000FC
