:1000000012C01AC018C017C016C015C014C013C043
:1000100012C011C010C00FC00EC00DC00CC00BC06C
:100020000AC009C008C011241FBECFE5D4E0DEBF5E
:10003000CDBF1DD042C0E4CF1F920F920FB60F92DA
:1000400011242F938F939F93969A2FED82E292E043
:10005000215080409040E1F700C0000096989F91A9
:100060008F912F910F900FBE0F901F90189581B315
:10007000806E81BBB89A84B3807F84BB85B3807F58
:1000800085BB8A9892988FE085BF80E48BBF789477
:10009000959A2FE986E891E0215080409040E1F761
:1000A00000C0000095982FE986E891E0215080403B
:0E00B0009040E1F700C00000EBCFF894FFCFC6
:00000001FF
